:1040000000100020355C000021A1000025A1000067
:104010000DF1020029A1000031A100000DF1020004
:104020000DF102000DF102000DF102000DF1020090
:1040300035A100002CAF03000DF102000DF10200CC
:104040000DF102000DF102000DF1020011610000FE
:104050000DF102000DF102000DF102000DF1020060
:104060000DF102000DF102009DB40000DD5B0000C7
:1040700085EF02000DF102000DF102000DF10200CA
:104080000DF102000DF102000DF102000DF1020030
:104090000DF10200396600000DF102000DF1020081
:1040A0000DF102009D5300007D5300000DF1020050
:1040B0000DF10200DF3F03000DF10200DDA401005D
:1040C000E53F0300E13F0300519C0100F13F030085
:1040D000E93F0300A1A40100ED3F0300198901009D
:1040E0001DA501000DF102000DF102000DF102000D
:1040F0000DF102000DF102000DF102000DF10200C0
:104100000DF102000DF102000DF102000DF10200AF
:104110000DF102000DF102000DF102000DF102009F
:104120000DF102000DF102000DF102000DF102008F
:104130000DF102000000000000000000000000007F
:10414000013800D0FCE770472DE9F04F93B0CDE97E
:104150000A32DDE91C530E9353EC102BCDE9080114
:10416000104619468DED060B1E9E2AF039F880B1D7
:10417000DDE906014FF0FF32C54B2AF059F840B98E
:10418000DDE906014FF0FF326FF480132AF032F8B8
:1041900070B1DDE908019DED060B0E9B1E96CDE981
:1041A0001C53DDE90A3213B0BDE8F04F00F088B9C6
:1041B0000022DDE9060100232AF01CF8002800F0A7
:1041C0003381DDE906A303F1004BCBF30A5016F46B
:1041D0008063A0F2FF3008BF06250F9329F02EFD63
:1041E0009BA3D3E9002329F093FD9BA3D3E90023EC
:1041F00029F0D8FBCBF31304894644F07F51804665
:104200000022A44B504641F4401129F0C9FB94A36D
:10421000D3E9002329F07CFD02460B46404649467F
:1042200029F0C0FB2AF00EF8044629F007FD8EA302
:10423000D3E900238046894629F06AFD0022964B87
:1042400029F0B0FB29F0FEFF89A3D3E9002307463C
:104250004946404629F05CFD80463846894629F0AB
:10426000EDFC85A3D3E9002329F052FD02460B465D
:104270004046494629F094FB02460B46CDE90C2303
:1042800029F046FDDDE90C23804689461046194693
:1042900029F088FB0022CDE91001804B40464946B9
:1042A00029F060FE00227E4B29F07CFB02460B4683
:1042B0004046494629F056FE00227A4B29F072FB0F
:1042C00002460B464046494629F04CFEDDE90C23E8
:1042D0008046894600204FF0804129F061FB02466C
:1042E0000B464046494629F05DFB02460B46DDE998
:1042F000100129F037FE07F2FF3700226A4B29F040
:1043000051FB00223B0529F003FD52465B468046E7
:10431000894629F08DFF002840F08980CDE90C897D
:1043200004F16303C72B34BF0427052731051BD5D0
:1043300053A3D3E900235046594629F06FFF0028C4
:104340007FD051A3D3E900235046594629F052FFAC
:10435000002876D00027A542C6BF2C1B04F1FF35EC
:1043600000253C4646F480660E9B9F422CBF4FF0D2
:104370000008A3EB070816F0020903D0002F18BFAE
:104380004FF000083CB1DDE90C235046594629F0B6
:10439000E9FD82468B46DDE906010022002329F073
:1043A00029FF10B10BF100439B46DDE9080126F41B
:1043B0000063CDE90183DDE90A324BEC10AB0095D7
:1043C00000F07EF802465FB3DDE9091316F0200F16
:1043D00000F10105089E0CBF65204520B047DDE9CE
:1043E00008010523002205930A23002CCDE902329F
:1043F00007F1FF374FEAD473B8BF64422A460193EE
:1044000004970A9B00942EF093FB0246B9F1000F2B
:1044100006D00B9BC41A0B9B1A190E9BA34245D8BE
:10442000104613B0BDE8F08FDDE906ABCDE6002203
:10443000404649461A4B29F095FD013CCDE90C0157
:104440006EE7002D90D00F9B002B8DD0013D8BE7A8
:10445000FB799F501344D33FB3C8608B288AC63F73
:1044600061436F63A787D23F71A379094F930A40D5
:104470001655B5BBB16B0240EF39FAFE422EE63F4E
:104480002D431CEBE2361A3F0000000080842E41D1
:10449000FFFFEF7F0000F83F0000E03F00002C40EE
:1044A00000002440000018400000F03F2020DDE91B
:1044B0000913089DA8470134ADE700BF00000000C4
:1044C0002DE9F04F5BEC10AB97B0CDE90501DDE9CC
:1044D0002057CDE90723504652465B465946229E57
:1044E00029F07EFE70B90323CDE902760193B04B2B
:1044F0000093DDE90501DDE907232EF039FA17B055
:10450000BDE8F08F4FF0FF326FF4801350465946EC
:1045100029F070FE28B10423CDE902760193A54B62
:10452000E6E74FF0FF3250465946A34B29F080FE94
:1045300068B1A24A06F00403002B08BF0322A04B77
:104540001CBF13460422CDE902760192D0E7504603
:1045500093A3D3E90023594629F06AFE38B992A300
:10456000D3E900235046594629F044FE68B1DDE9FD
:104570000723DDE905014BEC10ABCDE92176209551
:1045800017B0BDE8F04FFFF7DFBD00220023504613
:10459000594629F02FFE002800F09A805B465246CB
:1045A0000020002129F0FCF9012382468B46099363
:1045B00016F4806400F08E80092D40F28E80002475
:1045C00030210EABA5F109020134202C03F8011BA8
:1045D000A5EB040901D09442F6D15946504629F082
:1045E00031FE784B054603EBC90393ED007B8DED5F
:1045F0000A7B29F023FB02460B465046594629F018
:10460000CFF9DDE90A2329F083FB02460B46CDE909
:104610000C2329F03FFE804629F000FB02460B46A2
:10462000DDE90C0129F0BCF902460B46CDE90C236B
:104630000022654B29F0FCFD002851D008F101084B
:10464000404629F0EBFA02460B46DDE90A0129F063
:10465000DBFD10B14FF000080135B9F1000F50D16A
:10466000284629F0EBFA02460B465046594629F0F7
:1046700097F90022544B8046894629F0BBFD30B1A2
:10468000002240464946504B29F0D2FD10B1E807C0
:1046900000D501350A210EAB1A19202C0AD095FB42
:1046A000F1F001FB1055303502F8015B013405468D
:1046B0000028F2D106F00302012A57D1002F55D06D
:1046C000099A12B916F00C0F00D0013F302245E0D4
:1046D00009906DE74FF006097FE7A94600247CE7C3
:1046E0000022DDE90C01384B29F084FD0028B4D10B
:1046F000B8F1000F02D018F0010FAED008F1010898
:10470000ABE70A210EAB2344202C0ED0B8FBF1F00E
:1047100001FB1082B8F1090F02F1300209F1FF39F3
:1047200004F1010403F8012B11D83021A1440EAA91
:10473000202CAFD0A14504F101030AD11C4609F198
:1047400058030DEB03092E2309F8203CA2E780460D
:10475000DAE7A1541C46EBE71A550134A74205D904
:10476000202CF9D1CDE902760194C1E6202CF9D0B4
:10477000099A3AB12D2104F158026A4402F8201C2A
:104780000134EFE7710704D504F158022B216A4484
:10479000F4E73207E6D504F1580220216A44EDE738
:1047A0000000000065CDCD410000000065CDCDC109
:1047B000E7F40300EBF40300FFFFEF7FDEF40300F8
:1047C000E3F40300F0F403000000E03F0000000009
:1047D00070B58EB02C22002103A832F0AFFA64230A
:1047E0004FF002320893CDE905230B2301218DF808
:1047F0003430514B8DF810101B88D80700F195808C
:10480000084615F07BFF0A224C4B4D491A704FF4B5
:1048100028734C48ADF8123015F0F6FE4A4C206073
:1048200020B940F25221494805F076FB0521206865
:104830002EF0F9FE20B140F26221444805F06CFBF5
:10484000206801F0D7F9424B206819682EF062FF0A
:104850000C2516F033FE6843099016F02FFE6843CE
:104860000DEB05010790206810F08EF820B140F2A2
:104870007721364805F050FB0022364920682EF09B
:10488000D5FF20B140F27921304805F045FB40F2D8
:104890000353314D314E2B80052396F90000AB7048
:1048A0007F2801D116F088F83378EB7016F006FEF9
:1048B00000EB80008000A88016F000FE0023C000FE
:1048C0004FF0FF31E880AB604FF0FF3018A3D3E921
:1048D000002316F0CFF8224920682FF029FC206829
:1048E00002A92EF07DFF20B140F2B221174805F059
:1048F00013FB042220680DEB02012EF0F9FE0428C0
:1049000004D040F2B521114805F006FB01A90120B1
:104910002FF0C8FC05F048FC012017F06DF82AF0D4
:104920007CFD17F093F815F06DFF0EB070BD00BF61
:104930000A0020FF420300001443002087450020A6
:1049400025A701002C130020443A0020381304004E
:104950000012002095450020383A00206D160020F6
:10496000C5A801000348044B834202D0034B03B1A6
:104970001847704740180020401800200000000031
:10498000064B0749C91A891048BF0131491003D0A5
:10499000044B0BB101481847704700BF4018002076
:1049A000401800200000000010B5064C237843B9E1
:1049B000FFF7D8FF044B13B10448AFF30080012385
:1049C000237010BD8E43002000000000701C040006
:1049D00008B5054B1BB105490548AFF30080BDE89C
:1049E0000840FFF7CDBF00BF00000000701B002093
:1049F000701C0400A3F5803A704700BF174B002BD2
:104A000008BF134B9D46FFF7F5FF00218B460F466D
:104A10001348144A121A32F091F90E4B002B00D0B1
:104A200098470D4B002B00D0984700200021040030
:104A30000D000D48002802D00C48AFF300802AF08A
:104A400059F8200029002AF068FA29F0D3FD00BFA8
:104A5000000008000000000000000000001000201E
:104A600040180020E4450020000000000000000085
:104A700001480DF079BF00BF206E030037B52BF061
:104A800020FD06F07DFB4FF47A743C21B0FBF4F37B
:104A9000B3FBF1F2B2FBF1F504FB130401FB12339B
:104AA00001FB152204490094B0FBF1F103480DF01D
:104AB0005BFF03B030BD00BF80EE3600306E0300F8
:104AC00008B50A480DF050FF4FF47A7006F018FB55
:104AD000BFF34F8F0649074BCA6802F4E0621343E5
:104AE000CB60BFF34F8F00BFFDE700BF496E0300EF
:104AF00000ED00E00400FA051FB5D0E9023253F8DA
:104B0000221003EB82035A68097812788DF8081096
:104B10008DF809209A6801AC12788DF80A20DA68BD
:104B200012788DF806201A695B6912781B788DF867
:104B300005208DF804304FF480720123ADF80C206D
:104B40008DF80B308DF8073094E807002AF068F9EB
:104B500028B9064804B0BDE810400DF005BF94E840
:104B6000070000F07FFD0248F4E700BF5D6E030020
:104B70006C6E03001FB5D0E9023253F8221003EB2C
:104B800082035A689B6809781B7812788DF8043084
:104B900001238DF807304FF0807302934FF4807338
:104BA0008DF806108DF80520ADF80C3001AC94E8B6
:104BB00007002AF035F928B9054804B0BDE81040CF
:104BC0000DF0D2BE94E8070000F0DCFD0148F4E7E8
:104BD0005D6E03007A6E03001FB5D0E9023253F810
:104BE000221003EB82035A689B6809781B781278BD
:104BF0008DF80A3001238DF80B304FF48073ADF837
:104C00000C304FF080738DF808108DF80920019357
:104C100001AC94E807002AF003F928B9054804B06C
:104C2000BDE810400DF0A0BE94E8070000F0FCFDC8
:104C30000148F4E75D6E0300846E030010B5D0E90F
:104C4000023203EB820153F82230D1E901140978D2
:104C50001878003918BF0121003818BF01202278C8
:104C60002AF009F9BDE8104001480DF07DBE00BFF3
:104C70008E6E030000B589B005A800F033FE9DF8E4
:104C80001A309DF8152002939DF819309DF81610E2
:104C900001939DF81830044800939DF814300DF0EE
:104CA00063FE09B05DF804FB9E6E03001FB501A80A
:104CB00000F018FE9DF804309DF805209DF80610C0
:104CC00002480DF051FE05B05DF804FBDF6E0300F5
:104CD0001FB501A800F006FE9DF80A309DF80920D6
:104CE0009DF8081002480DF03FFE05B05DF804FB8A
:104CF000BD6E030010B52AF0E7F84400C0F3C710FA
:104D0000E4B240B105480DF02FFE2146BDE8104049
:104D100003480DF029BE0348F5E700BFFF6E03000E
:104D20001A6F03000A6F030000B591B068462AF0BD
:104D3000DBF89DF800104D480DF016FE9DF80110AF
:104D40004B480DF011FE9DF802104A480DF00CFE84
:104D50009DF8031048480DF007FE9DF804104748E1
:104D60000DF002FE9DF8051045480DF0FDFD9DF883
:104D7000061044480DF0F8FD9DF8071042480DF06C
:104D8000F3FD9DF8081041480DF0EEFD9DF8091067
:104D90003F480DF0E9FD9DF80A103E480DF0E4FD96
:104DA0009DF80B103C480DF0DFFD9DF80C103B48C2
:104DB0000DF0DAFD9DF80D1039480DF0D5FD9DF888
:104DC0000E1038480DF0D0FD9DF80F1036480DF04C
:104DD000CBFD9DF8111035480DF0C6FD9DF8121061
:104DE00033480DF0C1FD9DF8131032480DF0BCFDA5
:104DF0009DF8141030480DF0B7FD9DF815102F48A0
:104E00000DF0B2FD9DF816102D480DF0ADFD9DF88A
:104E100018102C480DF0A8FD9DF819102A480DF027
:104E2000A3FD9DF81A1029480DF09EFD9DF81B105A
:104E300027480DF099FD9DF81C1026480DF094FDB3
:104E40009DF81D1024480DF08FFD9DF81E1023487D
:104E50000DF08AFD9DF81F1021480DF085FD2148B9
:104E60000DF082FD11B05DF804FB00BF2C6F030054
:104E70003F6F0300526F0300656F0300786F0300FC
:104E80008B6F03009E6F0300B16F0300C46F0300BC
:104E9000D76F0300EA6F0300FD6F0300107003007B
:104EA0002370030036700300497003005C70030038
:104EB0006F7003008270030095700300A8700300F8
:104EC000BB700300CE700300E1700300F4700300B8
:104ED000077103001A7103002D7103004071030074
:104EE000537103008071030008B5054B1968054B29
:104EF00018682AF07AFEBDE8084003480DF034BD7A
:104F0000981000209811002066710300064A03469D
:104F1000106800B9704702789A4202D142788A42FA
:104F2000F8D0806AF5E700BF881B0020074B1B689C
:104F300003B9704703F10802904202D15A6812B9CE
:104F400070479B6AF4E7597818781047881B00204F
:104F50002DE9F04F032887B00646884617461D46C0
:104F60009DF844909DF848B000F2C680644B1B5CED
:104F7000CB40DB0740F1C0806FF00043642A9246CB
:104F800028BF4FF0640A9D4228BF1D46632A65D89A
:104F9000504628F043FE00225A4B28F0E3FFCDE9AB
:104FA0000201284628F03AFE02460B46DDE90201DE
:104FB00028F0AEFE29F06EF903462A1A52490C6811
:104FC000002C4ED14020059202932DF0A9FC0446FE
:104FD000002800F093804FF0000B109B059AC360EF
:104FE000029BC0E9052B8560036104224B464146C4
:104FF00080F801B0867080F8038080F804A080F803
:105000000090C0F83CB0304602F08CF8FF2304F169
:105010001C050093594628463C4A08F049FE3A4B85
:105020001B68002B39D1384B1C60FF2128462BF020
:1050300087FB632F48D9FF2104F11C002BF088FB6C
:105040000122E078A17882403020314B257800FBA6
:105050000133002D49D042F2100148E02B460022D6
:10506000ACE7A178B14216D1E178414513D121795D
:10507000514518D0002161701099C4E90432E160F3
:1050800084F804A0FF21A56084F8009004F11C00BE
:105090002BF056FB11E0E46B92E71A46DB6B002B1A
:1050A000FBD1D463C1E7A168A942E3D12178494586
:1050B000E0D1E16810988142DCD1BBF1000FB8D09B
:1050C000FF2104F11C00B2E797B9FF2104F11C0095
:1050D0002BF03EFB0122E078A178824030200C4B7F
:1050E000257800FB0133002DB5D041F210015A5054
:1050F000002007B0BDE8F08FF020FAE7F120F8E7D4
:105100008975030000005940901B002015510000D4
:1051100000C00350F8B503461E4A146804B9F8BD30
:1051200004F11C00834201D0E46BF7E70122302533
:10513000E378A1789A406778174B267805FB01330E
:10514000AFB166B141F210015A50E36813B1A269E0
:10515000934207D9FF2162692BF0E9FA04E042F299
:105160001001F1E70023A36100236370D7E76EB15C
:1051700042F210015A50E36813B1A3690133A361ED
:10518000FF2122692BF0D3FA0123EEE741F210014F
:10519000F0E700BF901B002000C0035070B504462C
:1051A00001250C4E04B970BD94FAA4F3B3FA83F34D
:1051B000306805FA03F224EA02040028F2D0C2782B
:1051C0009A4205D1FA22FF2108302BF0B0FAE9E724
:1051D000806AF2E7881B002003282DE9F047054686
:1051E0000F469246994631D81B4B1B5CCB40DB07E0
:1051F0002CD5DFF86880D8F80060CEB908202DF0F3
:105200008FFB044630B333464570877080F803A0A7
:1052100080F80090466001223946284601F082FF5E
:10522000D8F8003063B9C8F800400020BDE8F08726
:105230007378AB4202D1B378BB4209D07668DCE721
:105240001A465B68002BFBD15460EEE7F020EDE7D7
:10525000F220EBE7F120E9E7897503008C1B0020C1
:1052600003282DE9F74307460E46914698466FD826
:105270003B4B1B5CCB40DC076AD5B8F1000F69D013
:10528000FFF744FE002867D1192001F0B1FE28B1D4
:105290004FF00072334BC3F880211A601A2001F0DE
:1052A000A7FE28B14FF080622E4BC3F880211A6010
:1052B0002C202DF035FB04462AF02BF82A4B3546DE
:1052C000D3F8243406F0FC0223FA06F1C9070FD5FF
:1052D00000210131C9B2042901D1FF2508E0751868
:1052E00005F00305154423FA05FC1CF0010FF0D16D
:1052F0002AF015F8FF2D31D0FF2300211B4A27701B
:10530000667084F80290C4F80480E570A16204F12C
:105310000800009308F0CCFC154A136893B9146098
:105320000322A3786178207801F0FCFE012338463F
:105330002A463146CDE9003301F0AEFE002003B02D
:10534000BDE8F0831A469B6A002BFBD19462E7E725
:10535000F020F4E7F120F2E7F320F0E7F220EEE7A7
:105360008975030000E100E000C003502D4F0000EC
:10537000881B00200048704790750300064BD3F847
:105380002404D3F8202403F50053104000F05530D6
:10539000C3F82004FFF702BF00C00350064BD3F848
:1053A0002404D3F8202403F50053104000F0AA3061
:1053B000C3F82004FFF7F2BE00C00350044B10B541
:1053C0001C681CB1236898476468FAE710BD00BFE9
:1053D000941B00200F4B10B51B7804460BB9F0202E
:1053E00010BD0028FBD008202DF09AFA0028F6D036
:1053F0000023094A43601368046013B91060002059
:10540000EEE71A465B68002BFBD1136850609847A3
:10541000F5E700BF8F430020941B0020F8B5094E2C
:10542000044633780D465BB9FFF7A4FF01220769F4
:1054300029462046044BB84708B901233370F8BD0C
:10544000F020FCE78F430020BD5300002DE9F04F12
:1054500087B00D4616461C4680469DF840A00028A1
:105460005FD0324B984202D0314B98425BD14FF023
:10547000300901230A223146284601F053FE4FF03D
:10548000010B01230A225146204601F04BFE09235D
:10549000284F0BFA06FB09FB057909F5005210327B
:1054A00001936420C2F800B0009206F0F3FA41F2D2
:1054B0001001642049F801B006F0ECFA019B009A53
:1054C000013BEDD1194B98451CD1032345EA064613
:1054D00044EA0A44C7F89834C7F89C64C7F8A04463
:1054E00040F201130024ADF80830134B404602A9E6
:1054F000CDE903438DF8144001F092FE204607B039
:10550000BDE8F08F0A4B9845EAD1032345EA0645EA
:1055100044EA0A44C7F8A834C7F8AC54C7F8B04402
:10552000DEE7F020EBE7F120E9E700BF0000015AD9
:105530000080065000C00350A0860100004870475C
:10554000B075030038B5054601F0A6FF044C0128EC
:1055500001D1013C00D138BD284601F083FEF6E7B9
:10556000E19304002DE9F0430446884687B01646CF
:10557000DDE90E971022002102A81D4631F0DEFB66
:10558000082CADF80480ADF8064022D84FF48B7398
:10559000E340DB071DD5CEB12B880296ADF80C3069
:1055A000B9F1000F04D03B88CDF81090ADF814305D
:1055B000094801A9FFF7C6FFBDF80C302B80BDF8E4
:1055C00014303B80C0B207B0BDE8F0836FF0030039
:1055D000F8E7FC20F7E700BF0000015A90B589B05A
:1055E00002AF0346FB710B46BB7113467B71FFF79D
:1055F000A5FF03461C68002300930123012201211B
:105600001548A047154829F07BFBFB79002B04D0F7
:105610001249012029F009FB03E01049012029F07B
:1056200012FBBB790D49184629F01BFB7B790B490E
:10563000184629F038FB094829F094FB07F10C03C0
:105640000649184629F095FB05480DF08DF900BF75
:105650001C37BD4690BD00BF0000015A904300209A
:10566000C07503002DE9704F8AB003AC84E80700D1
:1056700094E8070029F0D4FB00287ED094E80700C6
:1056800007AB03C31A800AAB13E9070029F0C8FB74
:1056900000285FD09DF815109DF811309DF814205A
:1056A0009DF80C0001910093029229F005FB344E05
:1056B0009DF80DB096F800C09DF80EA02CF07F0C60
:1056C00040EA0C003070584629F0F6FA96F801C00E
:1056D0009DF80F902CF07F0C40EA0C007070504643
:1056E00029F0EAFA01999DF810809DF812409DF882
:1056F000135000293BD1029AA2B340F06000C0B21F
:10570000B27822F07F021043B070484629F0D4FAF4
:10571000F27822F007021043F070404629F0CCFAEC
:10572000327922F03F0210433071009829F0C4FA18
:1057300005B340F02000C0B2727922F03F0210435E
:105740006422B4FBF2F1707102FB1140C0B229F087
:10575000B3FAB0710A22002009490AB0BDE8704FBF
:1057600029F0DCBA00F0DF0040F04000C8E700F0AC
:10577000BF00C5E700F0DF00DEE70AB0BDE8708FCC
:10578000904300207FB501AB83E8070093E8070052
:1057900029F046FB00283ED09DF8040029F08CFA41
:1057A0001E4C237823F07F03184320709DF80500DA
:1057B00029F082FA63789DF80D6023F07F03184387
:1057C00060709DF806009DF80C5029F075FAFEB93E
:1057D000CDB140F06000C0B2A378012223F07F0376
:1057E0001843A0700D49002029F098FA01220020EA
:1057F0000B4929F093FA012200200A4904B0BDE8C0
:10580000704029F08BBA00F0DF0040F04000E3E781
:1058100000F0BF00E0E704B070BD00BF904300207F
:10582000914300209243002030B585B001AB83E85E
:10583000070093E8070029F0F3FA002846D09DF806
:10584000070029F039FA224CE37823F007031843C4
:10585000E0709DF8080029F02FFA23799DF80B508D
:1058600023F03F03184320719DF8090029F024FA22
:105870004DB340F02000C0B2637923F03F031843DA
:10588000642360719DF80A00B0FBF3F203FB120081
:10589000C0B229F011FA0122A0710E49002029F0AE
:1058A0003DFA012200200C4929F038FA012200209B
:1058B0000A4929F033FA01220020094905B0BDE860
:1058C000304029F02BBA00F0DF00D5E705B030BD3D
:1058D00090430020934300209443002095430020F0
:1058E0009643002037B50A230446084D0020294678
:1058F0000DF10602ADF8063029F0EBF929462046F5
:1059000003B0BDE8304029F034BA00BF9043002016
:1059100007B5064B0190009301210420044B054A72
:1059200008F0D6FC03B05DF804FB00BF6FEF030086
:10593000D8750300DD75030030B50A4C0A4B2268A8
:105940000A4D1A600A4B85B02B600A4B019303F095
:105950002FFD2B68029001A92068039329F0A3FF73
:1059600005B030BD981100209C270020982700200A
:105970008C11002071AD0300014B186829F0A7BFFE
:105980009811002038B503F013FD0446064D2B682E
:10599000D3F8B00203F000FD286829F0ABFF2046E1
:1059A000BDE8384003F0F8BC9811002010B51E4C3B
:1059B00029F093FC236F23F0070343F002032367CE
:1059C00029F092FCD4F82031002023F0070343F0A3
:1059D0000103C4F82031D4F8403123F0030343F02D
:1059E0000103C4F84031D4F8603123F0030343F0DD
:1059F0000103C4F86031D4F8403223F0030343F0CC
:105A00000103C4F84032D4F8003223F0070343F016
:105A10000103C4F80032D4F8083223F0070343F03E
:105A20000103C4F8083210BD0080005007B501A87A
:105A300001F0C0FE9DF80530012B27D1214A936D5E
:105A4000DB0313D4536B23F4FF0323F4FE4343F42B
:105A5000BC1343F4A0635363136B23F4704343F408
:105A600040431363136B43F4E06313639DF8043006
:105A700063B94FF000531B68134B1B68134B1B6833
:105A8000134B1B68134B1B68134B1B68134AD2F84C
:105A9000803043F00303C2F8803003F05FFC03F072
:105AA0001BFC03F021FCFFF781FF03F003FC00F077
:105AB000F3FA03F067FF00F0F9FD03B05DF804EBC3
:105AC00004F0BEBD00C00050004000200080002057
:105AD00000C0002000000120004001200080005094
:105AE00030B5194D95B00DAC0FCD0FC495E807003A
:105AF000164B84E80700164A0021CDE9032306234C
:105B00000E220DF12600CDE9053131F017F94FF4E1
:105B10008021104B0DAACDE907130B238DF82430FB
:105B20000C238DF825300C4B07A90A9320230B93E7
:105B300001238DF83130094B0948009303AB03F082
:105B400045FE15B030BD00BF90AD0300210005003B
:105B50000080055024800550AE430020541E0020D4
:105B6000A41E0020831E012B10B512D8012922D8B3
:105B7000114B04221B6905210020C3F3401301F0DF
:105B8000D1FA0E4B1B681868A8B1BDE81040436AF3
:105B900018478B1E012B0CD801280CD8BDE81040EB
:105BA0000022054B05211B691046C3F3401301F089
:105BB000B9BA0129E5D910BD00C003509C110020DD
:105BC00008B50449044804F0E7FDBDE80840FFF7C4
:105BD00087BF00BFA0110020C81E002001482AF086
:105BE0006ABB00BFA41E0020014B1A6A1868104748
:105BF000A41E002038B5054629F014FC044628B937
:105C000028460EF0EFFE034B1C7038BD0424022022
:105C1000F9E700BFCE4300200348044A0449121AA2
:105C2000921029F074BA00BF2C2404002C24040024
:105C3000E445002008B500F02FF8FFF7EDFF124B08
:105C400012498B4212D30020114B12498B4218D3B8
:105C5000FEF7D4FE186850F82240586840F82240F9
:105C6000013298688242F5D30C33EAE70022F8E764
:105C70001C6844F8220001325C68A242F8D3083361
:105C8000E4E70022F8E700BF781C0400841C04004D
:105C9000841C0400841C04006FF00100104B114AA6
:105CA00010B59A60D3F888200F4942F47002C3F807
:105CB000882001F50052106641F2FF705066022004
:105CC000C3F8D000BFF34F8FBFF36F8F08244FF49A
:105CD00040330648C0F88041D36004600B6110BDBA
:105CE00000ED00E0004000000080004400E100E022
:105CF000014B1868704700BFC8110020014B1860A5
:105D0000704700BFC8110020084B1B6F03F007034A
:105D1000022B04D0032B05D0012B05D0FEE7044B4A
:105D200018687047034BFBE703487047008000503A
:105D3000C8110020D0110020002D310108B5FFF757
:105D4000E3FF054B1B6FC3F301330133B0FBF3F0EB
:105D5000024B186008BD00BF00800050C411002035
:105D60000048704700B4C404014B1868704700BF76
:105D7000D0110020054B1860054B1B6F03F0070383
:105D8000032B01D1FFF7DABF704700BFD01100200D
:105D90000080005000487047002D3101174B986873
:105DA000C0F304400C280AD8DFE800F00B09090909
:105DB0000909072119091B1D1F0011487047002000
:105DC00070479B6803F04073B3F1807F11D0B3F14B
:105DD000007F10D00B4A002B08BF104670470A48BE
:105DE00070470A4870470A4870470A4870470A488F
:105DF00070470A4870470A48704700BF0040015A80
:105E0000405DC60000093D00C0EA210180BA8C0156
:105E10000048E801005A62020024F40080841E0059
:105E200040420F00014B1868704700BFCC110020A2
:105E3000BFF34F8F0549064BCA6802F4E062134373
:105E4000CB60BFF34F8F00BFFDE700BF00ED00E068
:105E50000400FA0500239B6AB3F5804F03D219684A
:105E6000064A914203D000230370836070470122E9
:105E700002709A689B694260F7E700BF07B0CD5E89
:105E800073B5494B04461A781AB102221A7002B04F
:105E900070BDCDE900220028F9D001261E7029F03E
:105EA00038FA424D424B186011F024FC2B785BB954
:105EB00000F0FCFB40B93F4808233F4A3F490068D7
:105EC0000DF0BEFF00B92E703D4B5A68E2603D4AAE
:105ED0009A601A6E22605A6E6260D3F87021A260D6
:105EE0001B6E5C0440D5384AD368D807FCD4374BC6
:105EF0001A68531C3DD04FF480139340344A136604
:105F00000423334C23664FF48063236629F02AF977
:105F100001300ED029F026F940F20113984208D042
:105F20004FF4804323664FF4004323661023C4F8E4
:105F300070311023264C4FF0804223664FF40053FB
:105F40006846236601A92266636629F0F3F8009B80
:105F50002366019B63662B78002B98D0164B1A683A
:105F600022665B68636692E71A4AD368D907FCD455
:105F7000BDE7194B1B78002BC2D1184B5A68144B44
:105F800012B94FF480121A66154A526812B94FF4CA
:105F900000121A66134B5B68002BB1D14FF48002DC
:105FA0000B4B1A66ACE700BFD0430020D143002062
:105FB000E01E0020FC110020E41E002000710800FB
:105FC0000080004455CEAC0000000440D4110020F5
:105FD0000090004400000450CF4300200080055092
:105FE00000C005500000065038B5224D04462B78FD
:105FF000012B02D001232B7038BD0028FCD029F0E2
:10600000B1F8013009D029F0ADF840F201139842FF
:1060100003D0194AD368DB07FCD42268174B1A66F1
:1060200062685A66A268C3F87021E268D40744BF68
:1060300000229A60124B1A68013213D1114A127869
:1060400082B911494968C80748BF1A600F4A5268A7
:10605000D10744BF01221A600D4A5268D20744BFDB
:1060600002221A6011F04EFB0A4B186829F057F90A
:106070000023C0E7D043002000000440008000441B
:10608000D4110020CF4300200080055000C00550EF
:1060900000000650E01E002038B500239B6AB3F5CF
:1060A000804F25D21A68144B9A4221D1134D2B7878
:1060B00013F0FD0402D00024204638BD1048FFF73D
:1060C000DFFE08214FF480330E4A0F48C2F88011DA
:1060D000C36011600D4A1361A36ADB6998470446E7
:1060E0000748FFF781FF002CE6D101232B70E2E780
:1060F0004FF48174E0E700BF07B0CD5ECF430020CE
:10610000D01E002000E100E000A000440090004408
:1061100013B5204B1B7803B9FEE700231E4CCDE9D5
:1061200000336A4608231D4920680DF089FEF0B946
:106130001B4AD2F84031D2F840211F2B4FF0010307
:1061400010D9203A9340019A1A43019208236A46D3
:10615000124920680DF02AFE4FF00053114A1A60D0
:10616000FFF766FE9340009A1A430092EEE70E4B4B
:106170009842F1D10A4AD2F84031D2F840211F2B7F
:106180004FF0010385BF203A93409340019398BF9D
:106190000093DBE7D0430020FC11002000710800D1
:1061A000008000440B020FF00BE000F070B5D0B19E
:1061B000C9B10E4E431E013913F8014F2046325D1E
:1061C00002F00302012A11F8012F08BF04F1200098
:1061D000B55C05F00305012D08BF2032801A01D1FE
:1061E000002CE9D170BD0120FCE700BFF9150400C7
:1061F0000346054A0549106803448B428CBF4FF0A3
:10620000FF301360704700BFD811002000800120CC
:106210002DE9F04F9A46564B85B01B7806460F463F
:106220001546DDF83C909DF844B0DDF85080002B19
:1062300000F09780072A00F296800E9B002B00F05A
:106240009280B9F1000F00F08E80129BB3F5006FC1
:1062500000F38980012803D1109B002B00F083807C
:10626000444B03EB05131B7B002B7ED0424C1022CA
:106270000021684630F062FD04EB45141022A7BBF4
:106280003946204630F05AFD43F210036380BBF1DB
:10629000000F03D1E37843F00303E370364A0E9B0B
:1062A00002EB451CCCE90193129B6901581E9DF835
:1062B0004C30C0F30A0003F003039B0643EA001EC0
:1062C00053582E48012E00EA03004EEA0003CDF891
:1062D00000A0535017D0B8F1000F2ED19CF8023017
:1062E00068F304138CF8023027E00021204630F0D8
:1062F00025FD4FF444736380BBF1000FCED1E378EA
:1063000043F03003C9E713230CF1100ECCF80C3026
:106310009CE80F008EE80F006FF00301DCF81C20F2
:10632000109B61F39F02012FCCF81C20CCF8143095
:1063300003D1CCF81890CCF8043000270D4A29017D
:1063400002EB051342F80180159A28465A60694607
:1063500022469F605E7301F031F9384605B0BDE812
:10636000F08F0748FAE70748F8E70748F6E700BF65
:10637000D2430020EC1F0020EC1E00200F80FFF312
:10638000028000F0018000F0078000F038B5124B69
:1063900005461B78DBB1E0B128F0BBFF0F4A0023B4
:1063A0001146147B54B92B6001251A0101EB03132C
:1063B0001D738C5028F0B3FF204638BD0133082BE5
:1063C00002F11002EDD128F0AAFF0548F5E70548D3
:1063D000F3E70548F1E700BFD2430020EC1F00209F
:1063E000048000F0028000F0018000F038B528F051
:1063F00090FF002305460B4A147B6CB90133082B30
:1064000002F11002F8D101F08DF8074B28461C70FC
:1064100028F085FF204603E0284628F080FF034847
:1064200038BD00BFEC1F0020D2430020058000F0E3
:106430000D4B10B51B78044693B1072812D828F0ED
:1064400068FF0A4B03EB04131A7B2AB100241C7368
:1064500028F065FF204610BD28F061FF0448FAE7E8
:106460000448F8E70448F6E7D2430020EC1F002078
:10647000068000F0028000F0018000F0154B13B59B
:106480001868002301908DF8043028F042FF124B69
:106490001C7824B128F043FF104802B010BD01223F
:1064A0001A7028F03CFF0E4B01A81C731C7783F870
:1064B0002C4083F83C4083F84C4083F85C4083F8E0
:1064C0006C4083F87C4008238DF8073001F04CF8CD
:1064D0002046E2E77CAF0300D2430020038000F0B7
:1064E000EC1F00200A4A08B512785AB107280BD8C9
:1064F000084A02EB00131B7B43B1002101F026F890
:10650000002008BD0448FCE70448FAE70448F8E71F
:10651000D2430020EC1F0020028000F0018000F038
:10652000078000F00A4A08B512785AB107280BD83C
:10653000084A02EB00131B7B43B1012101F006F86E
:10654000002008BD0448FCE70448FAE70448F8E7DF
:10655000D2430020EC1F0020028000F0018000F0F8
:10656000078000F00A4A08B5127852B107280AD805
:10657000084A02EB00131B7B3BB101F069F80020D5
:1065800008BD0548FCE70548FAE70548F8E700BFFD
:10659000D2430020EC1F0020028000F0018000F0B8
:1065A000078000F00D4B1B7893B1072812D889B1F2
:1065B0000B4B03EB00131B7B73B10A4B1A6D0123CA
:1065C0008340134214BF0123002300200B70704747
:1065D000054870470548704705487047D24300207A
:1065E000EC1F002000000450028000F0018000F049
:1065F000078000F00B4A10B512780C4662B10728EC
:106600000CD859B1084A02EB00131B7B43B101F0CF
:1066100031F82070002010BD0448FCE70448FAE778
:106620000448F8E7D2430020EC1F0020028000F06D
:10663000018000F0078000F0184B2DE9F0411F6D3C
:106640005B6D1F4000D5FEE701260025144CDFF8E6
:106650005880374218D02368C8F85060A3B1A168A9
:10666000284601316268A1609847637B012B0BD1FA
:1066700050B90C4B03EB45131A7B60F341021A73BC
:106680001A7F60F341021A770135082D4FEA46065A
:1066900004F11004DDD1BDE8F08100BF000004501A
:1066A000EC1F0020EC1E002000200450024B196853
:1066B000024B18680DF0A0BADC110020FC1100207C
:1066C00070B59400224605460E4630F089FB431C07
:1066D0000AD058B922463146284630F005FB00283A
:1066E000034808BF002070BD0248FCE70248FAE7F3
:1066F00010E000F021E000F024E000F010B50446C6
:1067000030F06AFB431C10D088B901F061F82346D1
:1067100020F003002044984201D1002010BD53F81E
:10672000042B0132F7D00348F8E70348F6E70348A3
:10673000F4E700BF0EE000F021E000F024E000F0FC
:1067400008B528F0DBFD014B186008BD5C27002070
:10675000014B186828F0D6BD5C27002041F6713344
:10676000124A30B5D469124DD3639368A84204F439
:10677000803423F4401306D893600E4AD2F81832BE
:1067800023F002030AE043F4801393600A4B98421B
:10679000F3D9084AD2F8183243F00203C2F818328B
:1067A00014B10022014BDA6330BD00BF000003507A
:1067B000005A620200C0075080F0FA022E4B984245
:1067C0004AD022D82D4B984240D014D82C4B984216
:1067D00039D00AD82B4B984232D02B4B98422FD02D
:1067E0002A4B98422CD000207047294B9842FAD16E
:1067F000284B186F7047284B98422AD0274B984255
:10680000F1D1244BD3F880007047254B98422BD010
:1068100009D8244B984223D0234B9842E3D11D4BF7
:10682000D3F88C007047214B984221D003F57403B4
:1068300003F510539842D6D1164BD3F89800704701
:10684000144B986D7047134B586E7047114B586F2F
:106850007047104B986F70470E4BD3F88400704709
:106860000C4BD3F8880070470A4BD3F89000704760
:10687000084BD3F8940070470048E8010024F40066
:10688000C0CF6A0080841E0000093D0040420F0016
:10689000405DC6000080E00FC0EA210180BA8C0193
:1068A000007E560380D54302006CDC020090D003CA
:1068B00038B5134B0546D3F820010C4600F007000D
:1068C00004281AD8DFE800F003090D111500012390
:1068D00005B1286004B1236038BDFFF709FA04232D
:1068E000F6E7FFF741FA0323F2E7FFF757FA05232C
:1068F000EEE7FFF74FFA0223EAE700231846E7E73F
:106900000080005037B50C460021114B0191D3F89F
:106910008031054603F00303022B0ED0032B11D068
:10692000012B03D101A8FFF7C3FF0D210DB1019B7E
:106930002B6004B1216003B030BDFFF72FFA0521B1
:106940000190F3E7FFF726FA02210190EEE700BF7E
:106950000080005038B5104B0546D3F840310C4646
:1069600003F00303022B0BD0032B0DD0012B0FD10F
:1069700028F0DAFB082305B1286004B1236038BD94
:10698000FFF750FA0723F6E728F0D1FB0923F2E7D7
:1069900001230020EFE700BF0080005038B5104B06
:1069A0000546D3F860310C4603F00303022B0BD0ED
:1069B000032B0DD0012B0FD128F0B6FB082305B116
:1069C000286004B1236038BDFFF72CFA0723F6E7EF
:1069D00028F0ADFB0923F2E701230020EFE700BF19
:1069E0000080005038B5144B0546D3F800020C4621
:1069F00000F0070004281BD8DFE800F003090D11A0
:106A00001500012305B1286004B1236038BD28F0CA
:106A10008BFB0823F6E7FFF705FA0723F2E728F0D8
:106A200086FB0923EEE7FFF789F90C23800AE9E7E3
:106A300000231846E6E700BF0080005038B5144B2D
:106A40000546D3F808020C4600F0070004281BD8BE
:106A5000DFE800F003090D111500012305B12860DE
:106A600004B1236038BD28F05FFB0823F6E7FFF789
:106A7000D9F90723F2E728F05AFB0923EEE7FFF7DD
:106A80005DF90C23800AE9E700231846E6E700BF1A
:106A90000080005038B5104B0546D3F840320C4604
:106AA00003F00303022B0BD0032B0DD0012B0FD1CE
:106AB00028F03AFB082305B1286004B1236038BDF3
:106AC000FFF7B0F90723F6E728F031FB0923F2E7D7
:106AD00000231846EFE700BF0080005038B5104B88
:106AE0000546D3F800310C4603F00303022B0BD00C
:106AF000032B0DD0012B0FD1FFF736F9032305B17E
:106B0000286004B1236038BDFFF78CF90723F6E74E
:106B100028F008FB0623F2E701230020EFE700BF7F
:106B200000800050032814D005D8012805D0022881
:106B300009D0002005E00F28FBD1084B186FC0F3E7
:106B4000013001307047054BD3F89000C0F304606A
:106B5000F7E7024B186FC0F38020F2E70080005087
:106B60001FB500230193252817D8DFE800F0131A7A
:106B70001D272C363B51565B60656A78161A401605
:106B800016561A272C27361A5127783B3B3B3B27B2
:106B900027275B60FFF7B8F80190019805B05DF812
:106BA00004FBFFF7CBF8F7E7FFF7AEF80246022049
:106BB000FFF7B8FFB2FBF0F20192EEE7FFF7BEF885
:106BC00002460320F4E7FFF7B9F802460320FFF777
:106BD000A9FFB2FBF0F25208EEE7002101A8FFF78F
:106BE00091FEDAE7002101A8FFF762FED5E70293E4
:106BF0004FF0E0231B695B0705D5FFF79FF8029074
:106C0000029B0193C9E703A902A8FFF7A3FEF7E7D8
:106C1000002101A8FFF79EFEBFE7002101A8FFF7B2
:106C2000BDFEBAE7002101A8FFF7DCFEB5E70021B1
:106C300001A8FFF703FFB0E7002101A8FFF74EFF0F
:106C4000ABE7094BD3F8803003F00303022BA8D045
:106C5000032B01D000209FE7FFF7A0F89CE700215D
:106C600001A8FFF717FF98E70080005008B5012042
:106C7000FFF776FFBDE808400349884294BF012131
:106C80000221032000F002B880F0FA02032810B5B8
:106C90000C4627D004D8012804D0022817D010BDF4
:106CA0000F28FCD128F00DFB28F013FB124A013C01
:106CB000136F23F4405343EA04331367FFF73EF89E
:106CC0000021FFF74BFDBDE81040FFF7CFBF0A4A98
:106CD0004C1ED2F8903023F0F85343EA0463C2F814
:106CE0009030DCE7044A4C1E136F23F4806343EAC0
:106CF00084231367D3E700BF008000501FB5002333
:106D00000193252821D8DFE800F013202020202A35
:106D10002F454A4F54595E7120203420204A2020AC
:106D200020202A204520712F2F2F2F2020204F5444
:106D3000314B1B6F03F00703013B032B05D8DFE842
:106D400003F00C02080A04230193019805B05DF8D2
:106D500004FB0323F8E70623F6E70223F4E7002009
:106D600001A9FFF7CFFDF0E7002001A9FFF7A0FD83
:106D7000EBE702934FF0E0231B695B0705D5FEF7B5
:106D8000DDFF0B230393039BDEE703A902A8FFF7B4
:106D9000E1FDF8E7002001A9FFF7DCFDD5E70020C1
:106DA00001A9FFF7FBFDD0E7002001A9FFF71AFEBC
:106DB000CBE7002001A9FFF741FEC6E7002001A9AB
:106DC000FFF78CFEC1E70C4BD3F8803003F00303D0
:106DD000022B03D0032B05D00023B5E7FEF7AEFF4F
:106DE0000B23B1E7FEF7DAFF0523ADE7002001A989
:106DF000FFF750FEA9E700BF0080005038B50546F8
:106E0000FFF7DCFC204B04465A68012A04D11F49D5
:106E10004A609A699207FCD10020FFF76FFF0428AF
:106E200003D128F04EFA28F054FA194A24F040739E
:106E300095421FD0174A95421FD0174AD16811F0CA
:106E4000060FFBD19068936091684B4013F4F81FD4
:106E500016D12846FEF752FF0020FFF74FFF042807
:106E600010D1FEF76BFF0021FFF778FCBDE838403A
:106E7000FFF7FCBE43F00073DFE743F08073DCE70D
:106E80009060E9E738BD00BF00C0015000E001504C
:106E900040420F0080841E0000000150F8B50446F7
:106EA0000020FFF72BFF032800F0818045F60E033A
:106EB00002213F4AC2F880303E4B9962012103F51E
:106EC00080539962936DD903FCD4D4E900131B0558
:106ED00043EA0163E17B94F820500B43217BE77E7A
:106EE00043EA0143617B6D0143EA0133A17B43EA3D
:106EF000811313619169D4E904031B0643EA80639B
:106F000001F000410B43A17E94F823000B43217E46
:106F100043EA0143617E43EA01239361136AE66910
:106F200023F00D0394F8221043EA870366BB136233
:106F3000966A94F8213045EA031326F033052B4373
:106F400043F0010393621C4D194A936D35EA030324
:106F5000FBD10225174B9D62936D5B00FCD4136936
:106F6000A56823F4700343EA055313614FF0004210
:106F7000104B9A6119B9022203F580539A6278B9CD
:106F800001220E4B9A620BE0334343F00803136275
:106F9000936A23F0330303432B4343EA4103936291
:106FA00094F824301BB1024B054AC3F88020F8BD89
:106FB00000C0005000D000500300014000E000502D
:106FC000F1A7FFFF014B93F900007047D343002066
:106FD000014B1880704700BFE0150020034B586834
:106FE000C0F30800003818BF0120704700ED00E032
:106FF000054B420953F8223000F01F0023FA00F03D
:10700000C04300F00100704700E100E00C4A10B5F9
:107010001369044643F00403136103F091FD28F063
:1070200081F9084B084AC3F8202430BF28F07BF9C7
:1070300003F0A8FD1CB9BDE81040FEF77FBE10BDEF
:1070400000ED00E000E003500000FFFF0A4A10B529
:107050001369044643F004031361084B084AC3F85C
:10706000202403F06DFD30BF03F08CFD1CB9BDE89A
:107070001040FEF763BE10BD00ED00E000E00350DD
:107080000000FFFF034A0179D36E23F030030B4366
:10709000D366704700400050072A2DE9F0410D46A5
:1070A000144698460FD803269700BE4000FA07F210
:1070B0003146154828F03AF905F0030231461348E5
:1070C000BA4028F033F9124B12499DF81800B8F174
:1070D000000F18BF1946012303FA04F40C600E4B8D
:1070E0000E49002818BF0B461C600D4B9DF81C0074
:1070F000C3F82044103103F22443002818BF0B4684
:107100001C60BDE8F08100BF00C4035008C40350F8
:1071100010D4035010E4035014E4035014D403506B
:1071200000E00350F8B504460D461F4616464AB126
:1071300001238B403021184A01FB0022F7B141F2B4
:107140001001535004EB4403072D4FF00F014FEA99
:10715000031316D8A80006FA00F281400F4818441D
:1071600028F0E4F84EB9012330210B4AAB4001FB73
:10717000042277B141F210015350F8BD42F21001E0
:10718000DFE7A5F10800800006FA00F2814004481C
:10719000E5E742F21001EFE700C0035004C00350DE
:1071A0000CC00350F8B505460E4614465AB303F01A
:1071B0000307836823F44073836028F09FF8AA686C
:1071C00082EA072303F440735340AB6028F09AF837
:1071D00036B9104B9D4217D11620FFF7C1FC064669
:1071E000AB680D4BDA5D62430DD0A2EBC403013BEB
:1071F0003344B3FBF2F3AA68013B920702D5002B9C
:1072000008BF0123AB61F8BD044B9D42E8D11720B4
:10721000E3E700BF0000015AA1AF03000080065061
:1072200038B500230E4A036400F50053DA634A7848
:1072300004460D4600F108037AB903F58053022293
:107240001A602046D5E901122B7BFFF7ABFF2046E1
:107250002978BDE8384028F078B803F50053EEE708
:10726000FFFF1F00874B70B5984219D0864B98429C
:1072700040F00581854B9968C26B12F4C06F15D040
:1072800091050FD5FD225A7009221A70002202645E
:1072900093F90110012900D15A7093F9010070BDD2
:1072A0007B4BE8E75605EFD5FE22ECE71C78082C6F
:1072B00000F2E180DFE814F009001F0045005300F0
:1072C00070007E009C00A700D6004C880A88E50666
:1072D0000AD5120A02F0060242F0F00201211970EA
:1072E0004263C1600120DAE702F0FE02A10748BF55
:1072F00042F00102F2E7160608D5802100F500529F
:10730000D1634FF608721A80022318E05506E9D5BA
:10731000402400F50052D4634A88D40604D50222E2
:107320001A700B784363DDE796076AD507221A7057
:107330001B7901EBC3031B89012BD3D10823C36045
:10734000D0E71506D9D45406CCD5402400F5005218
:10735000D4634A88920754D503221A708CE74C886C
:107360000A88E60643BF120A02F0060242F0F00263
:1073700002F0FE02650709D51C7942F0010201EB1B
:10738000C4010989012904BF0821C16004211970C1
:107390000123C3604263A5E71406AED45206A1D50B
:1073A000402400F50052D4634A88560729D50722A5
:1073B0001A7097E71A795D8801EBC2042689AE42FC
:1073C0000FD800240132D2B21A715C804C88650754
:1073D000C2D4E40702D4012A7FF64EAF08221A7005
:1073E00092E76268691C5980525D42630622DFE7BA
:1073F000160682D455067FF575AF402400F500527D
:10740000D4630522A9E794067FF56CAF456A214C49
:1074100046691A793440B4F5003F04BF466A4FF418
:10742000005601EBC20100F500540A8908BFE6636B
:107430002026E6635C88A24281BF4968661C5E80A4
:107440000D5559888A42C9D90424012AC46004D040
:10745000013A914201D10822C2601A78092A3FF408
:1074600015AF3FE7D2057FF53DAF4FF4807100F5D2
:107470000052D16308E74FF609321A8006E76FF031
:1074800003000CE70000015A008006506C27002022
:1074900060270020200002001D4B10B4984207D046
:1074A0001C4B98422FD06FF003005DF8044B7047DF
:1074B000194B0269D20744BF2022C2604A88940750
:1074C00002D50C89002CEED0520702D50A8A002A78
:1074D000E9D04FF480721A60002299601A71C023BB
:1074E000C3604369DB0510D4202200F50053DA6342
:1074F0000A4A5DF8044BDA634FF4FC6200F58053EE
:107500001A64FFF7AFBE064BD3E7436AE9E700BF53
:107510000000015A0080065060270020FFFF1F0076
:107520006C2700204FF40012064BC3F88020BFF3F5
:107530004F8FBFF36F8F0022FF21034B5A65996273
:107540005A60704700E100E000000450044A054B17
:10755000002908BF1346012282401A60704700BF0D
:10756000401004504020045010B501240178114B04
:107570000906C2785C609960447881784FF4001005
:1075800041EA04419961FF219962002199631964DC
:107590004FF0004159654FF0FF3103F50053196575
:1075A00005491301DBB2C1F8800181F81533086089
:1075B00010BD00BF0000045000E100E0F8B5012557
:1075C000C3B2DFF888C0D1F800E09D408F7ACB7A53
:1075D0000C46097BCCF850500CF5005C4CF820E0D0
:1075E0004FF0300E174E1B050EFB006094F80DC0D7
:1075F00043EA074343EA415322F00302C0F860C064
:10760000C365026727F085FE736D227A2B4373658D
:107610000D4B02B11D64627A02B19D632279A37998
:1076200043EA0243094A93616179E37943EA0143FA
:1076300005498B61034B55639D64BDE8F84027F015
:107640006EBE00BF00000450001004500020045023
:1076500010B50124C0B2844027F05BFE044B5A6D84
:1076600022EA04025A659C62BDE8104027F057BE2A
:107670000000045010B50124C0B2844027F049FE38
:10768000074BDA6A224208D15B6B9C430CBF012492
:10769000002427F044FE204610BD0024F9E700BF77
:1076A0000000045041F67132034BDA63012203F506
:1076B0000053DA60704700BF0000035041F671329A
:1076C0000121044BDA6303F50052D1600022DA6332
:1076D000704700BF00000350014BD3F8940070477F
:1076E00000400050CB784A7810B55B010C7843EA33
:1076F00082030A79234343EA02130C22424302F134
:10770000B0421363012C02BF8A78024B43F8202059
:1077100010BD00BFD080035008B54FF0B0435A6889
:107720006AB958B15B680BB127F01FFE01210D4B00
:10773000596027F01AFE4FF0B043D96008BD5B686E
:107740000BB127F012FE0028F0D127F00EFE4FF00B
:10775000B0430222DA6027F008FE0122024B5A6091
:10776000ECE700BF00100058002000584FF0B04177
:107770004B6810B50BB127F0F8FD01220B4BC47814
:107780005A608378934043EA84034478234304791E
:1077900043EA0413447943EAC4038B60044B5A6000
:1077A0000378C3F10203CB6010BD00BF0020005876
:1077B00000100058054B5B69C3F38512827003F01B
:1077C0003F021B0B42700370704700BF00C00750A0
:1077D0000120034B9B680A3303F01F039840704756
:1077E0000080E00F0D4B984208D1A3F50033C3F899
:1077F0008411802300F58050C3657047084B984280
:1078000004D1A3F51033C3F89411F2E7054B984265
:1078100004BFA3F52033C3F8A411EAE700800550A4
:1078200000C005500000065070B5054616461C46BF
:1078300019B90320FFF794F90146402C1BD003D857
:10784000DCB1202C1BD070BD602CFCD1042303FBC9
:1078500006F2530803EB4113B3FBF2F36021094A2C
:10786000203B02EAC30305F50052916005F5805202
:107870009460EB61E7E70623E9E71023E7E70823D5
:10788000E5E700BFF8FF7F00012200F580535A6052
:1078900040F6AA6341F20502436100230D4983606B
:1078A000C365C26000F500520361C361C3649164A3
:1078B00009498365884203D103650023436506E0D7
:1078C00006498842F8D001F580418842F4D001236E
:1078D00053607047FFFF01000080055000C0055055
:1078E00070B50D46FFF7D0FF012300F58056736099
:1078F000AB7C04461BB1836843F080438360EB7C20
:107900001BB12046297DFFF76DFF2A8A6B7B20463D
:107910001343EA891343E3602B7BD5E90112FFF798
:1079200083FF6B7D1BB1A36843F48033A360AB7D01
:107930001BB1A36843F40043A360EB7D2A7E1B07C1
:10794000120502F4E00203F0E0431343A365697EED
:107950001F4A8B1E012B1F4B1DD8944217D002F5D6
:107960008042944215D002F5804294420CBF02221C
:107970004FF0FF3203EB4213022041F2AC520329D5
:10798000985020D10423F3652B78636170BD0022E9
:10799000F0E70122EEE7944211D00F4A944210D052
:1079A00002F5804294420CBF02224FF0FF3203EBFB
:1079B0004213022042F2AC5201299850E1E7002222
:1079C000F5E70122F3E7042204F50053DA65DBE76B
:1079D0000080055000C0035000C0055038B5044673
:1079E000054D2BF0A8FE0FCC0FC594E80F0085E8DD
:1079F0000F00002038BD00BF7827002047F6FF7336
:107A00009A42F0B572D0022972D83A4B5B5C022BD5
:107A10006ED8394DDF0005EBC304A17815F833307B
:107A2000012938BF0121012B13D10025E078401A2C
:107A3000A84202D80844C0B2F0BD431B6668A0EB60
:107A4000530336F913609642D4BF1D4603F1FF304D
:107A5000EEE760680028EFD0B0F90040944204DB04
:107A6000B0F902409442B8BF144683883D44FF2BCE
:107A700019BFC8224FF0280CB0F90620B0F908C091
:107A8000A2EB04030CBF0126002693FBFCF3334456
:107A90006E781BB29E4201DD002B01DA731E1BB211
:107AA0004FF47A7C01339BB2071D5D1E2DB24FEA65
:107AB000C50E00EBC505EA88AD689E4214FB025274
:107AC00022EAE27202F15C02B2FBFCF204DD37F85A
:107AD000335001339542E8D200EB0E039888904270
:107AE00028BF1046884238BF0846A4E7FF20A3E716
:107AF0000020A1E7A5AF0300782700200229F0B5F8
:107B000060D8314B595C02295CD8304B13F83100F6
:107B1000012816D103EBC1039C78D878012C2146AB
:107B200038BF0121904294BFC1EB0001C1EB0201BB
:107B3000001BCAB28242C8BF00225B6833F9120040
:107B4000F0BD002A3CD003EBC1035968002939D0AD
:107B50009878904202D3B1F90200F1E7DC78B1F9EC
:107B600000009442ECD95C788B88013CA3F1FF06BD
:107B7000734201F10405E4B2734101F10C07DEB276
:107B8000B44216D805EBC3034FF47A756A43B3F9D0
:107B900002405B68D21A04EBD47302EB630292FBDF
:107BA000F4F29042CCDBB1F902009042C8DC10B292
:107BB000C6E737F833C05E1C9445E3D33346DEE7AF
:107BC0000348BDE70348BBE7A5AF030078270020C3
:107BD0000CFEFFFF0080FFFF08B50448FFF7FEFE24
:107BE000BDE8084001202BF0CCBD00BF48F50300E4
:107BF0007FB51422002101A82FF0A0F8044B01A9A1
:107C00004FF0FF3002932BF0F8FD07B05DF804FB56
:107C1000006A18002DE9F0418CB08846DDE9127643
:107C20001D460446002847D0002945D0002F43D0E8
:107C3000002E41D013F00F033ED120482049A3600D
:107C4000002A08BF0146E361C4E90013404609A9C0
:107C500027F0A0FC68BB2046099927F0A2FB294623
:107C6000204627F09EFB6946404627F041FD00BBB9
:107C70006946204627F081FB404603A927F043FDD3
:107C8000B8B9204603A927F078FB069701272046BC
:107C900045F0005506A90797089527F06EFB20468A
:107CA00009A909960A970B9527F071FB204627F042
:107CB000FFFB0CB0BDE8F0812120FAE700010004D1
:107CC000000101042DE9F04F97B0894690461F4608
:107CD0000546DDF880A0002800F0BB80002900F0F8
:107CE000B8803AB1229B002B00F0B380239B002B7D
:107CF00000F0AF80BAF1000F00F0AB80219B002BA9
:107D000000F0A78067B13C680026229B43440293A1
:107D1000464507D307B13C60002017B0BDE8F08F9F
:107D20003C46F1E75CB1229B219A9B5D125D0134D8
:107D30005340239A04F00F0493550136E8E7A8EB6B
:107D4000060BBBF10F0F58D9434B4846C5E9003429
:107D5000AC60EC6113A927F01DFC0028DDD128469A
:107D600013992BF00F0B27F01CFB5946284627F0E0
:107D700018FB484604A927F0BBFC0028CDD12846B3
:107D800004A927F0FAFA484607A927F0BCFC002806
:107D9000C3D1284607A927F0F0FA012322992F4AD8
:107DA000CDF828A00B930C928A190D9228464BF01F
:107DB00000520AA90E9303920F9227F0DEFA28468A
:107DC0000DA927F0DAFA239B039A99190123109140
:107DD00011931292214A284610A9CDF84CA0149371
:107DE000159227F0D4FA284613A927F0D0FA28468E
:107DF00027F05EFB5E4400288FD1229B03EB060B2D
:107E0000239B1E44029B5B4501D1464680E7ACB9EB
:107E1000219B2246CDE900A3494610232846FFF7BF
:107E2000F9FE00287FF479AF0AF1100212F8013D43
:107E30000133DBB213700BB95245F7D1219A1BF80D
:107E4000013B125D0134534006F8013B04F00F047E
:107E5000D8E7212061E700BF0303000410000020E1
:107E60002DE9F04F97B0894615469A460446209F63
:107E7000DDF88880DDF890B0269E002800F09D8017
:107E8000002900F09A80002E40F08A80002B00F03C
:107E90009480B8F1000F0AD0219B002B00F08D8058
:107EA000002A40F09F80F10700F1878002E0002A5D
:107EB00040F08580FB1F062B7FD8524B0BEB050251
:107EC0009A427AD20023504A4846C4E90023A3606C
:107ED000E36113A927F05EFB00285ED120461399C9
:107EE00027F05FFA204646EA074127F05AFA414652
:107EF000204627F056FA2946204627F052FA4846EF
:107F000001A927F0F5FB002847D1204601A927F059
:107F100034FA484604A927F0F6FB00283DD14FF07B
:107F20000109204604A927F028FA239B45F00055B3
:107F30000793219BCDF82090204609950DA90A931F
:107F400047F0005748F00053CDF82C900C93CDF833
:107F500034A0CDF838900F9727F00FFA20460AA9E1
:107F600027F00BFA204607A927F007FA259B2046A1
:107F700010A946F00056CDF840B0CDF844901295C7
:107F80001393CDF85090159627F001FA204613A9C7
:107F900027F0FDF9204627F08BFA17B0BDE8F08FE7
:107FA000259B53B1BAF1000F07D0B8F1000F01D0F3
:107FB000219B13B1B5B9022E20D12120EDE7239BDF
:107FC000002BFAD0BBF1000FF7D0C7F10F03DBB2E3
:107FD000032B3FF668AF0122DB0002FA03F3AB424A
:107FE000EBD9E8E7239B002BE7D0BBF1000FE4D0EF
:107FF000C7F10F03DBB2032BDDD8ECE7102E7FF6C1
:1080000052AFDAE700800120000005042DE9F04FAF
:1080100099B0884615469B460446229FDDF8989005
:10802000289E60B159B1279B4BB1BBF1000F06D020
:10803000249B0BB1239B13B11DB9022E13D1212315
:108040009AE0259B002BFAD0B9F1000FF7D0C7F1C9
:108050000F03DBB2032BF0D80122DB0002FA03F39B
:10806000AB42ECD9E9E7731E0F2BE8D816F0010AF2
:10807000E5D1FB1F062BE2D8414B09EB05029A42E2
:10808000DDD2404B4046C4E9003AC4F808A0C4F829
:108090001CA015A927F07EFA034600286CD12046C3
:1080A000159927F07EF9204646EA074127F079F92D
:1080B0002046249927F075F92946204627F071F9C2
:1080C000404603A927F014FB0346002854D120465C
:1080D00003A927F052F9404606A927F014FB0346EE
:1080E000002849D14FF00108204606A927F045F99C
:1080F000259B2046099345F00053CDF82880019335
:108100000B93239B0FA90C93249B47F0005743F03C
:108110000052CDF834800E92CDF83CB0CDF84080BE
:10812000119727F02AF920460CA927F026F92046B6
:1081300009A927F022F9019B204612A9CDF8489001
:10814000CDF84C80149327F022F9279B204615A9DF
:1081500046F000561593CDF85880179627F00DF984
:10816000204627F0A5F9034630B101902A46514632
:1081700048462EF0E3FD019B184619B0BDE8F08F8C
:1081800000800120000006047FB50E461D4604460F
:10819000F0B102B9E3B901230192029345F0005313
:1081A000039300230B4AA360C4E90023E361204644
:1081B00001A927F0E2F83146204627F0F2F82046E0
:1081C000294627F0EEF8204627F072F904B070BD7A
:1081D0002120FBE70000094330B5048804F4E043A4
:1081E000B3F5005F2ED1C4F30223042B2AD181F012
:1081F000AA6383F4807333F47E132AD081F0AA63D8
:1082000083F4007333F47E1323D00023144D21F440
:108210007E11A9421AD1B4F5105F17D1418821F01F
:108220004000802802D0B1F5807F15D1191F0C299C
:1082300012D8DB0710D4073A072A34BF00206FF0AA
:10824000860030BD42F204039C42DED16FF085000F
:10825000F7E7C1F30543D9E76FF08600F1E700BF08
:10826000000140052DE9F04F9BB08146DDE92876FD
:108270001D468B46DDF8A880DDF8BCA0099241B10F
:1082800038B1249B2BB1269B0BB9279B0BB91FB987
:108290004EB16FF086047FE02EB1B8F1000FF8D038
:1082A0002B9B002BF5D02C9B002BF2D0BAF1000FAA
:1082B000EFD02E9B002BECD02D9B002BE9D0B9F8F2
:1082C000003003F4E042B2F5005F69D1C3F302224B
:1082D000042A65D185F0AA6383F4807333F47E1396
:1082E00006D085F0AA6383F4007333F47E1360D163
:1082F000C5F3054329464846259ACAF80030FFF7DA
:108300006BFF0446002847D1014620220AA82EF020
:1083100015FD2022214612A82EF010FD0AA827F0F4
:10832000DAF8002855D159464846099A12AB27F089
:1083300053FA044600282FD12B9B9E424CD8DAF8E2
:1083400000302E9A934247D8474508D2BB1998452A
:1083500005D23946324640462EF0D6FC4746204BE1
:1083600025F47E159D4226D1DAF800303246069378
:108370002D9B0397CDE90483279B12A90293269B8B
:108380000AA80193259B0093249BFFF769FD2128F0
:1083900019D0D8B92C9B1E6020461BB0BDE8F08FC9
:1083A00042F20402934204D185F0052383F4801342
:1083B0009BE700239EE76FF0880400232C9A13604C
:1083C000CAF80030E8E76FF08604F6E76FF0920431
:1083D000F3E76FF09204DFE76FF08904DCE700BF9A
:1083E000000140052DE9F04F99B08A46DDE9266588
:1083F0009346984681462A9F28B96FF08604204606
:1084000019B0BDE8F08F0029F7D0229B002BF4D0E3
:10841000249B13B9259B002BEFD10EB9002DECD175
:1084200017B92B9B002BE8D12C9B002BE5D0289B68
:10843000002BE2D041464846239AFFF7CDFE044682
:108440000028DCD1202201460DEB02002EF076FC44
:108450002022214610A82EF071FC08A827F03BF836
:1084600010B16FF09204CAE75A465146484610AB25
:1084700027F0B2F904460028C1D12B9B9D422AD88F
:10848000BE4208D273199F4205D231462A46384669
:108490002EF03AFC3E46144B28F47E1898451DD128
:1084A000299B2A460693289B0396CDE90473259BB6
:1084B00010A90293249B08A80193239B0093229B5D
:1084C000FFF7A4FD212898D02C280AD00028C8D175
:1084D0002C9B1D6093E76FF0890490E76FF0880490
:1084E0008DE76FF094048AE700014005084B98423D
:1084F00002D0084B984207D10B88B3F5105F0CBF30
:1085000000206FF0850070476FF08500704700BF56
:10851000004440040013C0042DE9F04F99460023A5
:10852000A3B09346DDE92E74DDE93068CDE906336A
:10853000CDE90833CDE90A33CDE90C33DDF8C8A025
:108540000490059129B96FF08605284623B0BDE84F
:10855000F08F002AF7D00FB9002CF4D12C9B13B95F
:108560002D9B002BEFD116B9B8F1000FEBD1BAF16A
:10857000000FE8D048460499FFF7B8FF05460028E9
:10858000E3D10146202212A82EF0D8FB2022294652
:108590001AA82EF0D3FB12A826F09DFF002878D150
:1085A000DDE904015A461AAB27F016F90546002802
:1085B000CBD11A9827F0CDF805460028C5D114B9BB
:1085C000CAF80000C1E7B7420AD23B199E4207D25F
:1085D0004445B8D83946224630462EF095FB3746FA
:1085E0004E4B994558D003F54073994515D04C4BE7
:1085F000994540F08C804445A5D814F00F02A2D1D3
:108600002346CDE900761AA912A8FFF703FB074617
:10861000002834D1CAF8004097E700234445CDE94B
:108620000E33CDE910338ED82D9B0D2B8BD101232A
:108630008DF838302C9B0DF1390203F10C0153F801
:10864000040B8B4242F8040BF9D11B781370012301
:108650008DF8473014F00F0933D10F2CDAD906AB5F
:1086600001930EABCDE90276009324F00F020023B4
:108670001AA912A8FFF726FB0746002843D0424656
:10868000002130462EF05AFB0023012FCAF800309B
:1086900040D06FF0920558E744453FF654AF2D9B0C
:1086A000102B7FF450AF2C9B0DF1380C03F1100E02
:1086B000624618685968083303C273459446F7D177
:1086C000C8E724F00F033B440DF1280C03F1100E12
:1086D000624618685968083303C273459446F7D157
:1086E0000F2CBCD824F00F03334403930AAB02933E
:1086F00006AB01930EAB00934A4600231AA912A8B9
:10870000FFF7E0FA83E7B9F1000F83D0EAE76FF0F3
:1087100085051AE76FF08B0517E700BF0010C0044E
:10872000004440042DE9F04F994600239FB0934642
:10873000DDE92865DDE92A788A46CDE90633CDE909
:108740000833CDE90A33CDE90C33059029B96FF030
:10875000860420461FB0BDE8F08F002AF7D00EB97E
:10876000002DF4D117B9B8F1000FF0D12C9B002BDC
:10877000EDD048460599FFF7B9FE04460028E8D138
:10878000014620220EA82EF0D9FA2022214616A852
:108790002EF0D4FA0EA826F09EFE002844D15A46A8
:1087A0005146059816AB27F017F804460028D0D19B
:1087B000169826F0CEFF04460028CAD115B92C9B86
:1087C0001860C6E7BE420AD273199F4207D24545D8
:1087D000BDD831462A4638462EF096FA3E46344BEE
:1087E000994549D003F54073994520D0314B9945BF
:1087F00054D1454555D82B07A9D12B460122CDE9A7
:10880000006716A90EA8FFF705FA2C9B06461D6007
:1088100000289ED04246002138462EF08FFA0023D1
:108820002C9A012E13603FD06FF0920491E70D3D1A
:10883000454536D801238DF8283033460DF12902FD
:1088400006F10C0153F8040B8B4242F8040BF9D1EA
:108850001B780D3613704FF48073ADF8363006ABCD
:1088600001930AAB00932A460023CDE9026716A9BB
:108870000EA8FFF727FAC8E7103D454511D8334643
:108880000DF1280C06F1100E62461868596808337D
:1088900003C273459446F7D11036E0E76FF08504C4
:1088A00057E76FF0890454E76FF08B0451E700BF7E
:1088B0000010C0040044400410B54FF42F72002192
:1088C00004462EF03BFA8023C4F88C30054B04F1AB
:1088D0009C00C4F88430012384F88830BDE810403F
:1088E00026F069BCA8AF030010B5D0F8A0400A4636
:1088F00084B927F087F9044610B90024204610BD3A
:108900002D2896BF064B074953F82010064827F03C
:10891000BFFAF3E7D0F8A4101046A047EDE700BF78
:1089200050B00300ABAF030012D70300F8B590F8C6
:108930008060044616B100263046F8BD26F095FF4B
:108940000028F8D1012384F8803094F8883033B1BE
:10895000D4F88410194884F8886027F099FA4FF009
:10896000FF37D4F8B402421C1CD0C4F8B47210F023
:10897000FF0520D0204626F075FF2946204600F04E
:10898000AFFB0028EDD0204626F07AFF94F888301F
:108990006BB1D4F88410094827F07AFA002384F8E0
:1089A000883004E027F059FA431CE0D10126002367
:1089B00084F88030C0E70126D3E700BFCCD30300A2
:1089C000F8B50B780446302B0D46164604D14B788B
:1089D00003F0DF03582B11D0284F6A1E12F8011F35
:1089E000002934D128460A2226F064F8202C0346B8
:1089F0000D4631D1B1FA81F040091AE04A1C1F49F5
:108A000012F8013F8BB928462EF0CBF91C4B0238E7
:108A10002340032B12D10134A41084420AD1A87838
:108A200037288CBF0020012003E0CB5C13F044000A
:108A3000E6D1F8BDCCBF01200020FAE7002CB8BF7A
:108A40000334B0EBA40FD4BF01200020F1E77B5C1E
:108A500013F00400C2D1ECE726B1084302D0013B79
:108A600061F100050122A240013A1A40002D08BF21
:108A70009A420CBF01200020DBE700BFF91504007B
:108A800003000080F0B5037801467B2B17D1064622
:108A9000022400220B4F16F8015F7D2D05D10B5DDE
:108AA0006BB9D24302F0010008E07B5D13F0440093
:108AB00002D001320134EEE7202DFBD0F0BD0020C2
:108AC000FCE700BFF915040070B506460D462EF010
:108AD00068F90446304627F0DBF9044EAC4200D377
:108AE00070BD304627F0D4F90134F7E7E0CA03003F
:108AF0002DE9F84F044602216048FFF7E5FF1E21EB
:108B00002068FFF7E1FF6368586827F0C1F95C4807
:108B100027F0BEF967683B7BFD2B12D8D7F8088099
:108B20004FF0FF3440462EF03CF90646DFF84C91FA
:108B3000DFF8A8A1DFF864B10C3717F8013BFF2B71
:108B400001D1BDE8F88F212B14D8212B14D8DFE8F0
:108B500003F0178C8884807C787413131313131319
:108B60001313706C6864605C58541313131313135D
:108B70001313504CFE2B34D006B10134414D02E0AA
:108B800006B10134404D02214846FFF79DFF1E21EA
:108B90004846FFF799FF504627F07AF9594628468C
:108BA0002EF0E8F83949002818BF2946384827F040
:108BB0006FF93B78202B02D12B2027F05DF9354847
:108BC00027F066F94EB118F804301F2B05D018F8BD
:108BD00004001F2801D0B4424BDB294827F058F984
:108BE000ABE706B101342C4DCDE706B101342B4D76
:108BF000C9E7002EA1D001349FE706B10134284D0A
:108C0000C1E706B10134274DBDE706B10134264D59
:108C1000B9E706B10134254DB5E706B10134244D5D
:108C2000B1E706B10134234DADE706B10134224D61
:108C3000A9E706B10134214DA5E706B10134204D65
:108C4000A1E706B101341F4D9DE706B101341E4D69
:108C500099E706B101341D4D95E706B101341C4D6D
:108C600091E706B101341B4D8DE706B101341A4D71
:108C700089E727F001F90134A9E700BF7FB10300BC
:108C80008171030015B103000FB1030066B1030049
:108C9000CCD303006FC50300897103001DB103002D
:108CA00026B103002DB1030038B1030042B1030027
:108CB0004CB1030037B1030041B103004BB10300D5
:108CC00054B1030058B1030060B1030009B10300BF
:108CD00010B103005FB1030008B10300CAD703005D
:108CE0002DE9F04F9BB005468B460024009204937B
:108CF0002EF057F8249F049B05901C6028463C608A
:108D00000AAA09A927F0E5F8064658B90A982EF0EC
:108D100048F83446B146049B1860D5F89C3003935C
:108D2000039B1BB920461BB0BDE8F08F039B9B68DB
:108D30000193002B69D02E4416F8013B202B12D052
:108D400000260C237343019A02EB030AD3580293C3
:108D5000002B55D0DDF82480C84551DB9AF8083047
:108D60002BB1721C35E03B6801333B60E4E73B68A4
:108D7000D5F894200299D21A049B1A601AAB03EB1F
:108D8000890353F8403C184606932DF0DFFF079007
:108D90000028E6D102982EF004F8DAF80410034611
:108DA000087BD7F800A0FE28079A16D108F1FF38F3
:108DB000C8452ED00B680698029201932DF0F1FF62
:108DC0000AF10103029A0344E95C21B13B6009F115
:108DD00001091646B5E70133F6E7D5F89420A2EB72
:108DE0000A029A42BDDC584606932DF0DAFF069B34
:108DF00003447B2B1DD958461E4A009926F002FADF
:108E00002B46059A2A449A422AD1039B1B68039356
:108E100086E7D5F89420A2EB0A029A42E3DDD1F866
:108E2000008058F80C2B82B9059B3B60049B1A60AC
:108E3000E6E75846029A009926F0E4F958460E4AA9
:108E40000099013426F0DEF98BE75846009926F0A8
:108E5000D9F95846084A009926F0D4F90134E0E7D8
:108E600013F8011B0029CED14FF0200103F8011C9B
:108E7000C9E700BF68B10300E0CA03002DE9F0476D
:108E8000002486B01C60DDE90EA8064689468AF8F3
:108E900000401168154888F8004017461D468DF8B7
:108EA0001740FDF783F918B901242B6801332B60B3
:108EB0000020D6F89C6036B914B1012388F8003040
:108EC00006B0BDE8F087B06868B14B460021CDE937
:108ED00002A8CDE900750DF1170226F032FE9DF8CB
:108EE0001730002BE8D13668E5E700BF6DB103000D
:108EF0002DE9F04300260446ADF5457D7C22314640
:108F000005A802AF04962DF019FF80222046009795
:108F100003AB04A9FFF7E4FE01283ED104A82DF01D
:108F200040FF03993B68A0EB01080B44234428EA67
:108F3000E878054604A80144424618462DF024FF6F
:108F400000F80860D4F89060039B3968D4F890204A
:108F50001944B14212DCD4F89410E81A0244C4F85F
:108F60009020014404AAC4F89410D41825182B1B8F
:108F7000002B0DDC0DF5457DBDE8F083A05C26F0EF
:108F80007BFFD4F8903001360133C4F89030DBE732
:108F900014F8010B26F070FFE9E7EBDD24AD802229
:108FA000314628462DF0CAFE44AB4FF400723146DC
:108FB00018462DF0C3FE0DF1100903464A464FF046
:108FC0000108314612F8016B002E49D104A843F87C
:108FD00028102DF0E6FE2946334619F8016B0DF5F1
:108FE000887C5CF8042B824243D10133984501F818
:108FF000016BF2DAD4F89060039BB34242DC234663
:10900000354A04A9354826F043FF28462DF0C9FE0D
:109010000646039B3F68F61A1F44E0191D4426EAE2
:10902000E67204F198031744984204EB07014ED20C
:1090300004F1900399424AD96A1E81190B1A002B38
:1090400039DD12F8013F00F8013BD4F890300133CC
:10905000C4F89030D4F894300133C4F89430EDE77C
:10906000202E01F1010104BF43F8281008F1010886
:10907000A8E70DF1100E7244D25CB242B1D00022CA
:10908000EA54B7E7D4F890300136E05C26F0F4FEFD
:10909000D4F890300133C4F89030ADE7D4F8902084
:1090A000013B0132C4F89020D4F894200132C4F876
:1090B0009420002BF2DC00232E44E355731B002B7D
:1090C0007FF758AF15F8010B26F0D6FEF6E72946D4
:1090D0002DF05AFE3346ECE7A8AF030072B103004F
:1090E0002DE9F843D0E9245604460F46002294F8AF
:1090F0009830012B07D10A2F07D1002384F898302C
:109100000020BDE8F88300F29F801B2F01D10223CD
:10911000F4E70D2F0DD1012384F898300D2026F0AF
:10912000ABFE0A2026F0A8FE00230120C4E9243368
:10913000E7E74FF00008082F84F8988034D14545C0
:1091400030DDB5420FD1384626F096FE202026F0BD
:1091500093FE013D384626F08FFE013E04F805805F
:10916000C4E92456CCE7FBDA05F1FF39384626F08E
:1091700083FE04EB0903A6EB0902611918462DF0E2
:10918000C3FD04F806800146013E484826F080FEF3
:1091900035464D4501DC4D46E2E7082026F06CFEE1
:1091A000013DF6E7ACD0DBE77F2F1CD1002EA7DD19
:1091B000B542A5DA6319691C21441846721B2DF0CB
:1091C000A3FD04F806800146394826F061FE082018
:1091D000013E26F051FEB542F9D1D4F89430013B5E
:1091E000C4F894308CE70A2F98D0092F03D1204679
:1091F000FFF77EFE84E7D4F88C30013BB3427FF763
:109200007FAFB54204EB050805F101090CDB3846D8
:1092100088F80070D4F89430C4F890900133C4F802
:10922000943026F029FE6BE74146721B04EB0900DF
:109230002DF06AFD404626F02BFE0820013E26F068
:109240001BFEB542F9DDE2E7022B06D15B2F01D10F
:10925000032353E784F8982049E7032B7FF450AFAA
:10926000413F84F89820032F3FF64AAFDFE807F02C
:1092700002070A160121204626F0AFFD40E74FF015
:10928000FF31F8E7B542BFF63BAF605D26F0F4FD75
:10929000D4F890300133C4F8903031E7002D7FF7D7
:1092A0002FAF013D0820C4F89050BAE77BB103000E
:1092B00054C6030013B50024064A6846536F43F0B2
:1092C0000103536700948DF80440FDF7DBFE204650
:1092D00002B010BD0040005008B50248FDF78EFDF9
:1092E000002008BD00B4C40430B58BB06C46184DE6
:1092F0000FCD0FC40FCD0FC495E8030084E8030021
:10930000144BD3F84C2112031DD5A3F5FE431C8842
:109310004FF6FF739C4208BF8C248DF81940FDF76F
:1093200051FE204480F308008DF818000A48FCF72D
:1093300021FD6846FDF7B2FD4FF4FA70FDF748FED7
:1093400000200BB030BDD3F85041E4B2E5E700BFD8
:1093500080B103000080E00F00F049026FF00403C9
:10936000502110B50A480B4C13F0800F03F1010295
:1093700007D123443D2A83F800131346F4D100207B
:1093800010BD03F00F03043B034419761346EBE7CB
:1093900000ED00E000E100E010B5044625F0AEFF6E
:1093A000024B1C6025F0AEFF002010BDA02700205E
:1093B00010B525F0A3FF034B1C6825F0A3FF204642
:1093C00010BD00BFA027002038B50C461546014649
:1093D00010B9FFF7EDFF01462B462246034809F07E
:1093E000E5FA0028D4BF3720002038BD1D00030057
:1093F00030B51446054687B0104626F041FE636935
:10940000024683423CBFD4E903315B181B1A7BB18F
:109410000F49049403910021CDE901310123009308
:109420002846D4E9001325F001FF002007B030BD25
:109430000122627694F82D20002AF6D084F8353087
:109440001321E369204698472046636A9847ECE772
:10945000F19300002DE9F04788B004460F46164608
:10946000984625F056FF8146002E7AD0237E03F0E1
:10947000FF02002B00F0A280204626F001FE656965
:10948000A84205D1637ED4E9033213445D1B01E099
:10949000F9D9451BB54228BF354625F03AFF94F867
:1094A0002D308246002B6DD12A46384661692DF059
:1094B0006BFC63692E462B44636121E0037803F063
:1094C000FD0111295BD1216B814205D1A3F111016D
:1094D0004B424B4184F83430013E6369216B0132C9
:1094E0008B4203F1010308BF236363619542606906
:1094F000E4D1D4E90323216B1344994200D12263C0
:109500000025D4E9032361691344994208BF6261CD
:10951000207A6576FCF7E6FF204626F0B1FD636908
:10952000834232D1257694F82D30E568656103B128
:1095300025632046636A9847214B049403930023D4
:10954000029323692A4601930123009363682168EB
:10955000207A25F06BFE207AFCF7E4FF504625F0D8
:10956000DEFE4846C8F8006025F0D9FED8F8003085
:10957000002B0CBF1B20002008B0BDE8F08707F8C7
:10958000013BAAE72E460022B0E70123207A23768A
:109590000DF11E01FDF72EF89DF81E30002BDAD0DC
:1095A0000DF11F01207AFCF7FDFF9DF81F10002927
:1095B000D1D12246207AFFF71BFFCCE71646D0E731
:1095C000F1930000002807DB01234109034A00F062
:1095D0001F00834042F82130704700BF00E100E0E7
:1095E000002808DB01224309034900F01F008240E4
:1095F000603341F82320704700E100E070B5044675
:109600000568FFF7D5FE844202D10020FFF7C4FEB3
:1096100095F936603046FFF7E3FF002E0CDB0122A0
:109620001949730906F01F06B240203341F8232080
:10963000BFF34F8FBFF36F8F95F937603046FFF759
:10964000CFFF002E0CDB01220F49730906F01F0625
:10965000B240203341F82320BFF34F8FBFF36F8F09
:10966000287AFCF77FFF287AFCF7E2FEFCF7BEFEC3
:1096700000232846C4E90033C4E90433A360AB6A7D
:10968000BDE87040184700BF00E100E02DE9F0435D
:109690000C461546064687B04022002120461F464C
:1096A0002DF04CFB95E8030000232A692376EB6834
:1096B00084E80300C4E904232A7DE36084F82C20B5
:1096C000AA7D2363012384F8343084F835300E9B5F
:1096D00084F82D2023620F9BE7616362109BA362D5
:1096E0002B7A84F836306B7A84F837302D4B34601F
:1096F00073602D4BB3602D4B33612D4B73612D4B3C
:10970000F360FCF7BBFE38B12B4B984204D0102419
:10971000204607B0BDE8F083002104F10800FCF703
:1097200035FE07460028F2D14FF00108234B336283
:10973000234B84F83C80B361224BF3619DF84830A1
:1097400084F8390084F83B309DF84430204684F892
:109750003A30697D84F8388026F0A2FC95F90990AA
:109760004846FFF73DFF4846FFF72CFF164B049491
:10977000CDE902732369CDE900836368E26821685B
:10978000207A25F053FD04460028C0D195F90850F1
:109790002846FFF725FF2846FFF714FF3046FFF75E
:1097A000FBFDB5E7F1000300559400006F000300D6
:1097B00075000300FD950000038000F049000300E0
:1097C000A10003007B000300F19300002DE9F041AC
:1097D0004FF001081C46574B86B00293564B0C9D28
:1097E0000193564B174600930A46CDE90388294654
:1097F000534BFFF74BFF0646002840F0928023684A
:1098000004222B64237985F84430A17985F8461029
:10981000607985F84500237A85F84830E37985F842
:109820004730A37A85F84A30637A85F84930237B3C
:1098300085F84C30E37A85F84B304346FDF772FCEF
:1098400043460222217AE079FDF76CFC3E703946EE
:109850002068FEF745F81421A27B3A4B03EB421037
:10986000C0F8AC1594F806C061792E3203EB4213B0
:1098700041EA0C415960227AE37943EA0243C0F895
:10988000BC3585F84D607B7E032B50D8DFE803F0B4
:109890003A4D021D022385F84D3000230422217B1E
:1098A000E07AFDF73FFC41F2AC520221A37B5B0161
:1098B00003F1A04303F570339950217BE27A42EA29
:1098C000014241F2B8515A501CE0012785F84D3051
:1098D00002220023A17A607AFDF724FCA17A627A41
:1098E000A37B42EA014241F2B4515B0103F1A04380
:1098F00003F570335A500422236803F58053DA6568
:10990000002FCAD104226379052185F84530A37957
:1099100085F846302B6C206803F58053DA6425F017
:1099200066FD304606B0BDE8F0810027CEE723266D
:10993000F7E700BF1F020300130203009F020300AA
:109940009302030000C0035007B501F0A7FB6A466D
:1099500001F038FC18B15221034800F0DDFADDE9CE
:10996000000103B05DF804FBA8B1030008B501F0E5
:10997000C9FA18B17A21024800F0CEFA002008BDD9
:10998000A8B1030008B500F025FA0D4A536A43F464
:1099900070235362EFF308834FF0CD31094A043B43
:1099A000934209D20222084B1A67FFF7DFFFBDE896
:1099B00008400648FEF712B843F80419F0E700BF64
:1099C00000ED00E0000000200040005048F50300DA
:1099D00007B5042200200DEB020129F089FE0428BE
:1099E00004D040F26711044800F096FA019800F0A4
:1099F000DBFB03B05DF804FBA8B10300082310B53E
:109A00000A0A41400648C9B201F00104490804B1FC
:109A10004140013B13F0FF03F6D181EA020010BD83
:109A20002083B8ED2DE9F8430025134C134EDFF8E1
:109A30005480134FDFF8509023780BB9BDE8F883BA
:109A400022464146002056F8043B26F0F0FA2278E0
:109A500023460134002AFAD15B7853B105F00303A1
:109A6000032B0CBF39464946002026F0E0FA0135A9
:109A7000E2E73946F8E700BF28B7030000100020EE
:109A80008071030012B20300E7EA030040F60522EA
:109A90006A4B2DE9F0411B8893420ED8B3F5206F35
:109AA0000DD840F20252934218D040F20172934214
:109AB00020D040F2015293420AD0BDE8F081A3F6D3
:109AC00002235F4C032B1ED8DFE803F0376396B206
:109AD0005C490020BDE8F04126F0A9BA00205A49AF
